:100000000C9472000C9493000C9493000C94930045
:100010000C9493000C9493000C9493000C94930014
:100020000C9493000C9493000C9493000C94930004
:100030000C9493000C9493000C9493000C949300F4
:100040000C9493000C9493000C9493000C949300E4
:100050000C9493000C9493000C9493000C94BA00AD
:100060000C9493000C9493000C9493000C949300C4
:100070000C9493000C9493000C9493000C949300B4
:100080000C9493000C9493000C9493000C949300A4
:100090000C9493000C9493000C9493000C94930094
:1000A0000C9493000C9493000C9493000C94930084
:1000B0000C9493000C9493000C9493000C94930074
:1000C0000C9493000C9493000C9493000C94930064
:1000D0000C9493000C9493000C9493000C94930054
:1000E0000C94930011241FBECFEFD1E2DEBFCDBF31
:1000F00000E00CBF12E0A0E0B2E0E6E5F8E000E0CE
:100100000BBF02C007900D92AE31B107D9F722E0C4
:10011000AEE1B2E001C01D92AD32B207E1F70E943C
:1001200004010C9429040C9400003FB7F8948091CA
:10013000230290912402A0912502B091260226B5B7
:10014000A89B05C02F3F19F00196A11DB11D3FBF0F
:10015000BA2FA92F982F8827BC01CD01620F711DDE
:10016000811D911D42E0660F771F881F991F4A95D8
:10017000D1F708951F920F920FB60F9211242F936B
:100180003F938F939F93AF93BF9380911F02909162
:100190002002A0912102B091220230911E0223E0A0
:1001A000230F2D3758F50196A11DB11D20931E0276
:1001B00080931F0290932002A0932102B093220209
:1001C0008091230290912402A0912502B0912602F1
:1001D0000196A11DB11D8093230290932402A09348
:1001E0002502B0932602BF91AF919F918F913F91CD
:1001F0002F910F900FBE0F901F90189526E8230F98
:100200000296A11DB11DD2CF80B380BB579A109228
:10021000C50087E68093C4008091C0008D7F8093E5
:10022000C00088E18093C10086E08093C20080E036
:10023000E82FF0E0E050FE4F9081992341F02091AB
:10024000C00025FFFCCF9093C6008F5FF1CF5F9A6F
:10025000C6E0D2E09FE3792E20E8622E02E112E0B0
:100260004F9A1F921F921F921F92DF93CF930E946B
:100270006F017F926F921F921F921F930F930E94A4
:100280006F010E9495004B015C018DB79EB70C96E3
:100290000FB6F8949EBF0FBE8DBF84EFC82EDD242D
:1002A000D394E12CF12C0E949500681979098A09F0
:1002B0009B09683E734081059105A8F391E0C91A36
:1002C000D108E108F10828EE820E23E0921EA11C5D
:1002D000B11CC114D104E104F10429F7C1CFCF93BB
:1002E000DF93CDB7DEB7AE014A5F5F4FFA01619190
:1002F0007191AF018091290290912A020E9483019D
:10030000DF91CF9108952F923F924F925F926F921B
:100310007F928F929F92AF92BF92CF92DF92EF9295
:10032000FF920F931F93CF93DF9300D000D000D0A4
:100330001F921F92CDB7DEB77C013B018A01FC0101
:1003400017821682838181FFDDC1CE0101965C0197
:10035000F7019381F30193FD859193FF81913F0113
:10036000882309F453C1853239F493FD859193FFB5
:1003700081913F01853229F4B70190E00E949B03EF
:10038000E7CF912C212C312CFFE1F31538F08B3283
:1003900011F190F4803209F1833229F137FC3CC02D
:1003A00020ED280F2A3050F536FE20C08AE0989EB6
:1003B000200D1124922E06C08D3291F0803371F7FA
:1003C000689430F8F30193FD859193FF81913F018B
:1003D0008111DACF21C0689431F8689432F8F2CFF5
:1003E000689433F8EFCF689434F8ECCFEAE02E9EAF
:1003F000200D1124222E689435F8E4CF8E3229F492
:1004000036FC04C1689436F8DDCF8C3619F4689454
:1004100037F8D8CF8836B1F2982F9F7D9554933016
:10042000E0F08336A1F18337C1F1833509F063C071
:100430002801F2E04F0E511CF801C080D180692DD7
:1004400070E036FC02C06FEF7FEFC6010E948503AB
:100450004C01689437F882010AC00C5F1F4FFFE31C
:10046000F98388248394912C6501E89437F833FE4E
:100470002DC0522C8114910471F5552009F468CFD8
:10048000B70180E290E00E949B035A94F6CFF801F6
:10049000808189830E5F1F4FE4CF2801F2E04F0E69
:1004A000511CF801C080D180692D70E036FC02C07B
:1004B0006FEF7FEFC6010E9490034C018201D5CF00
:1004C000B70180E290E00E949B032A94281419044B
:1004D00009F0B0F7CECFF60137FC859137FE819158
:1004E0006F01B70190E00E949B0351105A94F1E014
:1004F0008F1A9108BFCF843619F0893609F077C07A
:10050000F80137FE6BC060817181828193810C5F3D
:100510001F4FF32DFF763F2E97FF09C090958095D2
:10052000709561957F4F8F4F9F4F689437F82AE001
:1005300030E0A5010E94CB03C82ECA188C2C432C96
:1005400036FE0CC0E89440F8C91440F434FE05C0EF
:1005500032FC03C0F32DFE7E4F2E892C44FEAAC030
:10056000FE01EC0DF11D8081803309F09CC0242D2B
:10057000297E422E842D8870582E43FCAAC040FE4E
:10058000A4C09C2C821418F42C0C922C981844FEB5
:10059000A6C0B70180E390E00E949B0342FE09C021
:1005A00088E790E041FE02C088E590E0B7010E9434
:1005B0009B03C91408F49FC0CA94D12C9FEFC91A99
:1005C000D90ACA0CDB1CF60182916F01B70190E0D9
:1005D0000E949B03AC14BD04B1F74FCF60817181C1
:1005E000072E000C880B990B0E5F1F4F92CFD32C58
:1005F000E894D4F82AE030E08537E1F1232D297F13
:10060000D22E8F36A9F1F0F4883551F1F7018681A9
:1006100097812B960FB6F894DEBF0FBECDBFDF914A
:10062000CF911F910F91FF90EF90DF90CF90BF90EF
:10063000AF909F908F907F906F905F904F903F9082
:100640002F900895803749F0883701F7D4FE02C013
:100650006894D2F820E130E00DC06894D4F8F6CF69
:1006600034FE03C0822F8660D82E20E132E002C023
:1006700028E030E0F801D7FE0FC0608171818281EF
:1006800093810C5F1F4FA5010E94CB03C82ECA188F
:100690003D2CE89437F852CF6081718190E080E082
:1006A0000E5F1F4FF0CF42FC02C0839463CF839450
:1006B000839460CF842D867809F45CCFF6CFB701A0
:1006C00080E290E00E949B0383948214C0F3512C3B
:1006D0005ECF522C5818821408F459CFF8CF842DCD
:1006E000867809F466CF8BE241FE80E247FC8DE21A
:1006F000B70190E05CCFB70180E390E00E949B03DC
:100700009A9457CF8FEF9FEF84CFFC0105906150F3
:1007100070400110D8F7809590958E0F9F1F089517
:10072000FC016150704001900110D8F780959095C0
:100730008E0F9F1F08950F931F93CF93DF93182F52
:10074000092FEB018B8181FD09C01FEF0FEF812F76
:10075000902FDF91CF911F910F91089582FF14C0C8
:100760002E813F818C819D81281739073CF4E881D7
:10077000F981CF0101969983888310838E819F81AF
:1007800001969F838E83E3CFE885F985812F1995A4
:10079000892BA1F3DACFFA01AA27283051F12031B1
:1007A00081F1E8946F936E7F6E5F7F4F8F4F9F4F05
:1007B000AF4FB1E03ED0B4E03CD0670F781F891F47
:1007C0009A1FA11D680F791F8A1F911DA11D6A0F15
:1007D000711D811D911DA11D20D009F468943F91C8
:1007E0002AE0269F11243019305D3193DEF6CF01C7
:1007F0000895462F4770405D4193B3E00FD0C9F78D
:10080000F6CF462F4F70405D4A3318F0495D31FDF9
:100810004052419302D0A9F7EACFB4E0A69597954C
:10082000879577956795BA95C9F700976105710522
:1008300008959B01AC010A2E06945795479537956C
:100840002795BA95C9F7620F731F841F951FA01DC6
:060850000895F894FFCFAB
:1008560048656C6C6F0050494E30203D202566205F
:0E0866000A0050494E31203D202566200A0030
:00000001FF
