:100000000C9472000C9486000C9486000C9486006C
:100010000C9486000C9486000C9486000C94860048
:100020000C9486000C9486000C9486000C94860038
:100030000C9486000C9486000C9486000C94860028
:100040000C9486000C9486000C9486000C94860018
:100050000C9486000C9486000C9486000C94E300AB
:100060000C9486000C9486000C9486000C948600F8
:100070000C9486000C9486000C9486000C948600E8
:100080000C9486000C9486000C9486000C948600D8
:100090000C9486000C9486000C9486000C948600C8
:1000A0000C9486000C9486000C9486000C948600B8
:1000B0000C9486000C9486000C9486000C948600A8
:1000C0000C9486000C9486000C9486000C94860098
:1000D0000C9486000C9486000C9486000C94860088
:1000E0000C94860011241FBECFEFD1E2DEBFCDBF3E
:1000F00000E00CBF22E0A0E0B2E001C01D92A930F8
:10010000B207E1F70E942D010C944F010C940000FE
:100110003FB7F8948091050290910602A0910702E2
:10012000B091080226B5A89B05C02F3F19F0019693
:10013000A11DB11D3FBFBA2FA92F982F8827BC0141
:10014000CD01620F711D811D911D42E0660F771F69
:10015000881F991F4A95D1F708958F929F92AF9269
:10016000BF92CF92DF92EF92FF920E9488004B01E4
:100170005C0184EFC82EDD24D394E12CF12C0E9485
:100180008800681979098A099B09683E73408105CE
:100190009105A8F321E0C21AD108E108F10888EE20
:1001A000880E83E0981EA11CB11CC114D104E10487
:1001B000F10429F7FF90EF90DF90CF90BF90AF90C0
:1001C0009F908F9008951F920F920FB60F92112457
:1001D0002F933F938F939F93AF93BF93809101028F
:1001E00090910202A0910302B091040230910002AA
:1001F00023E0230F2D3758F50196A11DB11D209343
:1002000000028093010290930202A0930302B09334
:1002100004028091050290910602A0910702B0911C
:1002200008020196A11DB11D80930502909306025C
:10023000A0930702B0930802BF91AF919F918F9155
:100240003F912F910F900FBE0F901F90189526E8A9
:10025000230F0296A11DB11DD2CF80B380BB579A48
:100260001092C50087E68093C4008091C0008D7F06
:100270008093C00088E18093C10086E08093C20033
:100280005F9ACEE40E94AD005F988091C00085FF28
:10029000FCCFC093C6000E94AD005F9AF3CFF894E4
:0202A000FFCF8E
:00000001FF
